:100000000C942A000C9447000C9447000C94470071
:100010000C9447000C9447000C9447000C94470044
:100020000C9447000C9447000C9447000C940A0170
:100030000C9447000C9447000C9447000C94470024
:100040000C9447000C9447000C9447000C94470014
:100050000C94470011241FBECFE5D4E0DEBFCDBF16
:1000600010E0A0E6B0E0E6E6F2E002C005900D92F6
:10007000AE3CB107D9F721E0AEECB0E001C01D9273
:10008000AA30B207E1F70E94E1000C9431010C9410
:1000900000008FEF87BB0895AC01CB01880F991F3B
:1000A000680F791F3BB33E7F2BB321609AB3922B2D
:1000B0009ABBAFB7F8946115710589F0FA01640F26
:1000C000751F919188E02BBB97FF3BBB990F0000F8
:1000D00000C03BBB8A95B9F7E617F70791F7AFBFAA
:1000E00085E88A95F1F70000089590BD89B988E107
:1000F0008AB98EE880BD579A08955D9BFECF8CB972
:100100000895CF93DF93EC018881882331F0219605
:100110000E947D0089918111FBCFDF91CF910895DD
:100120005F9BFECF8CB10895CF93C82F8823A1F099
:100130006C2F70E0FB013197CF01880F991FE80FFA
:10014000F91FEA51FF4F11821082128286EE90E071
:100150000E944C00C15061F72FEF84E39CE02150D6
:1001600080409040E1F700C00000CF910895E7E0A3
:10017000F1E023EE30E08FEF81831082128233971B
:10018000E217F307C9F70895E7E0F1E023EE30E066
:100190008CE31182808312823397E217F307C9F749
:1001A000089564E270E086EE90E00E944C002FEF2C
:1001B00089E698E1215080409040E1F700C00000BE
:1001C000089578948CE00E9494000E94B7000E94E9
:1001D000C40083E390E00E9475000E94490081EB17
:1001E00090E00E94810084E990E00E94810082E812
:1001F00090E00E94810085E690E00E94810081EB02
:1002000090E00E94810080E690E00E9481000E94C0
:10021000D100FDCF1F920F920FB60F9211242F9392
:100220003F934F935F936F937F938F939F93AF937E
:10023000BF93EF93FF930E94900090E00E94810093
:10024000FF91EF91BF91AF919F918F917F916F91AE
:100250005F914F913F912F910F900FBE0F901F9084
:060260001895F894FFCF91
:100266000D0A3E20002A2A2A2A2A2A2A566572734D
:10027600696F6E2056302E312A2A2A2A2A2A2A0DFA
:100286000A002A2A2A2A46726F67494E542A2A2ABF
:100296002A0D0A002A2A2A2A466C6F72656E742075
:1002A6005461696E7475726965722A2A2A2A0D0A62
:1002B600002A2A2A2A2A2A2A2A2A2A2A2A2A2A2AC2
:0E02C6002A2A2A2A2A2A2A2A2A2A2A0D0A0045
:00000001FF
