:100000000C942A000C9447000C9447000C94470071
:100010000C9447000C9447000C9447000C94470044
:100020000C9447000C9447000C9447000C94470034
:100030000C9447000C9447000C9447000C94470024
:100040000C9447000C9447000C9447000C94470014
:100050000C94470011241FBECFE5D4E0DEBFCDBF16
:1000600011E0A0E6B0E0E6ECF2E002C005900D92EF
:10007000A031B107D9F721E0A0E1B1E001C01D92A4
:10008000AC34B207E1F70E94FF000C9461010C94BC
:1000900000008FEF87BB0895009721F0019721F4AE
:1000A000C09A0895C0980895C0980895AC01CB01F6
:1000B000880F991F680F791F3BB33E7F2BB32160D8
:1000C0009AB3922B9ABBAFB7F8946115710589F07A
:1000D000FA01640F751F919188E02BBB97FF3BBB22
:1000E000990F000000C03BBB8A95B9F7E617F707E8
:1000F00091F7AFBF85E88A95F1F70000089590BDAC
:1001000089B988E18AB98EE880BD08955D9BFECFEC
:100110008CB90895CF93DF93EC018881882331F067
:1001200021960E94860089918111FBCFDF91CF91AA
:1001300008955F9BFECF8CB10895CF930E949900E4
:10014000C82F90E00E945501892B11F4C03239F478
:100150008C2F0E94860080E690E00E9486008C2F03
:10016000CF910895CF93C82F8823A1F06C2F70E012
:10017000FB013197CF01880F991FE80FF91FE85D48
:10018000FE4F11821082128288E291E00E94560096
:10019000C15061F72FEF84E39CE0215080409040F4
:1001A000E1F700C00000CF910895E9E4F1E025E215
:1001B00031E08FEF8183108212823397E217F307C9
:1001C000C9F70895E9E4F1E025E231E08CE311821A
:1001D000808312823397E217F307C9F7089564E228
:1001E00070E088E291E00E9456002FEF89E698E1E6
:1001F000215080409040E1F700C0000008958CE05D
:100200000E94B2000E94D5000E94E20083E390E0C9
:100210000E947F000E94490083EF90E00E948A00C4
:1002200086ED90E00E948A0084EC90E00E948A00B3
:1002300087EA90E00E948A0083EF90E00E948A00A3
:100240008EE990E00E948A000E94EF008EE990E023
:100250000E948A000E949D00C82F873679F082375D
:10026000C9F481E090E00E944C000E94D5000E94F9
:10027000EF0081E890E00E948A00E6CF80E090E005
:100280000E944C000E94E2000E94EF0083E690E092
:100290000E948A008C2F90E00E945501892BA1F2C8
:1002A00083EA90E00E948A00CFCF803209F091115A
:1002B0000C945E0180528F55D8F7089599278827AE
:0602C0000895F894FFCF41
:1002C6000D0A004C454420506F7274423020697309
:1002D600207377697463686564204F4646210D0A6A
:1002E600004C454420506F7274423020697320736D
:1002F60077697463686564204F4E210D0A000D0A04
:100306003E2000082008002A2A2A2A2A2A2A566578
:100316007273696F6E2056302E312A2A2A2A2A2AAB
:100326002A0D0A002A2A2A2A46726F67494E542A3B
:100336002A2A2A0D0A002A2A2A2A466C6F72656E14
:1003460074205461696E7475726965722A2A2A2A44
:100356000D0A002A2A2A2A2A2A2A2A2A2A2A2A2A5E
:100366002A2A2A2A2A2A2A2A2A2A2A2A2A0D0A004E
:00000001FF
