S00F000046726F67494E542E737265639C
S11300000C942A000C9447000C9447000C9447006D
S11300100C9447000C9447000C9447000C94470040
S11300200C9447000C9447000C9447000C94470030
S11300300C9447000C9447000C9447000C94470020
S11300400C9447000C9447000C9447000C94470010
S11300500C94470011241FBECFE5D4E0DEBFCDBF12
S113006011E0A0E6B0E0ECECF2E002C005900D92E5
S1130070A432B107D9F721E0A4E2B1E001C01D9296
S1130080A036B207E1F70E94FF000C9464010C94BF
S113009000008FEF87BB0895009721F0019721F4AA
S11300A0C09A0895C0980895C0980895AC01CB01F2
S11300B0880F991F680F791F3BB33E7F2BB32160D4
S11300C09AB3922B9ABBAFB7F8946115710589F076
S11300D0FA01640F751F919188E02BBB97FF3BBB1E
S11300E0990F000000C03BBB8A95B9F7E617F707E4
S11300F091F7AFBF85E88A95F1F70000089590BDA8
S113010089B988E18AB98EE880BD08955D9BFECFE8
S11301108CB90895CF93DF93EC018881882331F063
S113012021960E94860089918111FBCFDF91CF91A6
S113013008955F9BFECF8CB10895CF930E949900E0
S1130140C82F90E00E945801892B11F4C03239F471
S11301508C2F0E94860083E790E00E9486008C2FFB
S1130160CF910895CF93C82F8823A1F06C2F70E00E
S1130170FB013197CF01880F991FE80FF91FE45C49
S1130180FE4F1182108212828CE391E00E9456008D
S1130190C15061F72FEF84E39CE0215080409040F0
S11301A0E1F700C00000CF910895EDE5F1E029E307
S11301B031E08FEF8183108212823397E217F307C5
S11301C0C9F70895EDE5F1E029E331E08CE311820C
S11301D0808312823397E217F307C9F7089564E224
S11301E070E08CE391E00E9456002FEF89E698E1DD
S11301F0215080409040E1F700C0000008958CE059
S11302000E94B2000E94D5000E94E20083E390E0C5
S11302100E947F000E94490086E091E00E948A00CB
S113022089EE90E00E948A0087ED90E00E948A00A7
S11302308AEB90E00E948A0086E091E00E948A00A6
S113024081EB90E00E948A000E94EF000E949D00D2
S1130250C82F873679F08237C9F481E090E00E9494
S11302604C000E94D5000E94EF0084E990E00E94B7
S11302708A00EACF80E090E00E944C000E94E200F5
S11302800E94EF0086E790E00E948A00D0E0CE0151
S11302900E945801892BC1F286EB90E00E948A00EB
S11302A0CE010E948A0080E690E00E948A00CCCFB2
S11302B0803209F091110C94610180528F55D8F766
S10F02C00895992788270895F894FFCF2B
S11302CC3A206973204E4F54205245434F474E49B0
S11302DC5345440D0A004C454420506F727442300F
S11302EC206973207377697463686564204F46468C
S11302FC210D0A004C454420506F72744230206921
S113030C73207377697463686564204F4E210D0AFA
S113031C000D0A3E2000082008002A2A2A2A2A2A2C
S113032C2A56657273696F6E2056302E312A2A2A2A
S113033C2A2A2A2A0D0A002A2A2A2A46726F67496F
S113034C4E542A2A2A2A0D0A002A2A2A2A466C6F73
S113035C72656E74205461696E7475726965722A63
S113036C2A2A2A0D0A002A2A2A2A2A2A2A2A2A2A44
S113037C2A2A2A2A2A2A2A2A2A2A2A2A2A2A2A2ACD
S107038C0D0A000052
S9030000FC
