:100000000C942A000C9434000C9434000C943400AA
:100010000C9434000C9434000C9434000C94340090
:100020000C9434000C9434000C9434000C94340080
:100030000C9434000C9434000C9434000C94340070
:100040000C9434000C9434000C9434000C94340060
:100050000C94340011241FBECFE5D4E0DEBFCDBF29
:100060000E9439000C945C000C9400000E94470030
:1000700008950E943600D09AC89A2FEF84E39CE03E
:10008000215080409040E1F700C00000F5CF8AB3D6
:100090001ABA8BB38FEF8BBB97B317BA98B388BBE1
:1000A00094B314BA95B385BB91B311BA92B382BB22
:0C00B000D09AD89A15BE0895F894FFCF9E
:00000001FF
