:100000000C942A000C943C000C943C000C943C0092
:100010000C943C000C943C000C943C000C943C0070
:100020000C943C000C943C000C943C000C943C0060
:100030000C943C000C943C000C943C000C943C0050
:100040000C943C000C943C000C943C000C943C0040
:100050000C943C0011241FBECFE5D4E0DEBFCDBF21
:1000600020E0A0E6B0E001C01D92AC39B207E1F794
:100070000E94CE000C9409010C9400002BB3342F85
:10008000309532232BB3422B2AB3242B2ABB2FB714
:10009000F894FC01680F791FE617F70761F081916A
:1000A00098E04BBB87FF3BBB880F000000C03BBB09
:1000B0009A95B9F7F1CF2FBF08959B01220F331FF7
:1000C000620F731F0E943E0085E88A95F1F70000D9
:1000D000089541E00C945D0041E00C943E00CF9304
:1000E000C82FCC23A1F06C2F70E0FB013197CF011A
:1000F000880F991FE80FF91FE858FF4F11821082EF
:10010000128288E790E00E946900C150EACF2FEF89
:1001100084E39CE0215080409040E1F700C0000063
:10012000CF910895E8E7F0E026E921832083228338
:100130008FEF848313821582878394E696831086DB
:10014000928781871386158684871686108A9787FB
:10015000818B138A128A848B968B158A878B918F59
:10016000108E128E948F238F158E178E97E1968F97
:100170009DE790A312A281A313A2089564E270E008
:1001800088E790E00E946C002FEF89E698E121500B
:1001900080409040E1F700C00000089586E9809318
:1001A000610080936000809362008FEF8093640011
:1001B00010926300109265008093670094E690931C
:1001C00066001092680090936A0080936900109214
:1001D0006B0010926D0080936C0010926E00109274
:1001E000700090936F0080937100109273001092D2
:1001F0007200809374009093760010927500809343
:1002000077008CE00E946F000E9492000E94BE0066
:06021000FDCFF894FFCFC2
:00000001FF
