:100000000C942A000C943C000C943C000C943C0092
:100010000C943C000C943C000C943C000C943C0070
:100020000C943C000C943C000C943C000C943C0060
:100030000C943C000C943C000C943C000C943C0050
:100040000C943C000C943C000C943C000C943C0040
:100050000C943C0011241FBECFE5D4E0DEBFCDBF21
:1000600020E0A0E6B0E001C01D92AC39B207E1F794
:100070000E94D8000C94E2000C9400002BB3342FA3
:10008000309532232BB3422B2AB3242B2ABB2FB714
:10009000F894FC01680F791FE617F70761F081916A
:1000A00098E04BBB87FF3BBB880F000000C03BBB09
:1000B0009A95B9F7F1CF2FBF08959B01220F331FF7
:1000C000620F731F0E943E0085E88A95F1F70000D9
:1000D000089541E00C945D00CF93C82FCC23A1F08C
:1000E0006C2F70E0FB013197CF01880F991FE80F4B
:1000F000F91FE858FF4F11821082128288E790E0C2
:100100000E946900C150EACF2FEF84E39CE02150A8
:1001100080409040E1F700C00000CF910895E8E7EB
:10012000F0E026E92183208322838FEF84831382EA
:100130001582878394E6968310869287818713863B
:10014000158684871686108A9787818B138A128A70
:10015000848B968B158A878B918F108E128E948F3D
:10016000238F158E178E97E1968F9DE790A312A28D
:1001700081A313A20895E8E7F0E09AE08FEF92A33D
:1001800011A283A3339720E0E435F207C1F7089565
:1001900064E270E088E790E00E9469002FEF89E652
:1001A00098E1215080409040E1F700C000000895A0
:1001B0008CE00E946C000E948F000E94BB000E9495
:0801C000C800FDCFF894FFCF49
:00000001FF
