:100000000C942A000C9434000C9434000C943400AA
:100010000C9434000C9434000C9434000C94340090
:100020000C9434000C9434000C9434000C94340080
:100030000C9434000C9434000C9434000C94340070
:100040000C9434000C9434000C9434000C94340060
:100050000C94340011241FBECFE5D4E0DEBFCDBF29
:100060000E9436000C944E000C940000D09A889A9E
:10007000899AD89A2FEF84E39CE0215080409040E9
:10008000E1F700C00000D8982FEF84E39CE02150F6
:1000900080409040E1F700C00000EBCFF894FFCF24
:00000001FF
