:100000000C942A000C9434000C9434000C943400AA
:100010000C9434000C9434000C9434000C94340090
:100020000C9434000C9434000C9434000C94340080
:100030000C9434000C9434000C9434000C94340070
:100040000C9434000C9434000C9434000C94340060
:100050000C94340011241FBECFE5D4E0DEBFCDBF29
:100060000E9438000C945D000C9400000C94480031
:100070000E943600D09A889AC89A809A2FEF81E120
:100080009AE7215080409040E1F700C00000F4CF93
:100090008AB31ABA8BB38FEF8BBB97B317BA98B3E7
:1000A00088BB94B314BA95B385BB91B311BA92B31C
:0E00B00082BBD09AD89A15BE0895F894FFCF5F
:00000001FF
