:100000000C942A000C9434000C9434000C943400AA
:100010000C9434000C9434000C9434000C94340090
:100020000C9434000C9434000C9434000C94340080
:100030000C9434000C9434000C9434000C94340070
:100040000C9434000C9434000C9434000C94340060
:100050000C94340011241FBECFE5D4E0DEBFCDBF29
:100060000E9436000C9459000C940000D09A889A93
:10007000899AD89A2FEF89E698E1215080409040E4
:10008000E1F700C000002FEF89E698E121508040A1
:100090009040E1F700C00000909A919A2FEF84E31E
:1000A0009CE0215080409040E1F700C0000012BA6F
:0600B000E0CFF894FFCF41
:00000001FF
